:020000040800F2
:10000000F8170020590500085D0300085F03000889
:1000100063030008670300086B030008000000008A
:100020000000000000000000000000006F03000856
:100030007103000800000000730300087503000846
:1000400073050008730500087305000873050008B0
:1000500073050008730500087305000873050008A0
:100060007305000873050008730500087305000890
:100070007305000873050008730500087305000880
:100080007305000873050008730500087305000870
:100090007305000873050008730500087305000860
:1000A0007305000873050008730500087305000850
:1000B00073050008F3050008D7060008730500085B
:1000C0007305000873050008730500087305000830
:1000D000730500080B310008BF31000867320008C3
:1000E00073050008730500087305000800F002F8A6
:1000F00000F04AF80AA090E8000C82448344AAF178
:100100000107DA4501D100F03FF8AFF2090EBAE875
:100110000F0013F0010F18BFFB1A43F0010318473B
:10012000CC590000EC590000103A24BF78C878C1BF
:10013000FAD8520724BF30C830C144BF04680C60ED
:10014000704700000023002400250026103A28BF35
:1001500078C1FBD8520728BF30C148BF0B60704739
:10016000662904F04487642903F0A28200207047C6
:100170001FB503F0E9FD04000020002104F022FB7C
:10018000E0601FBD10B510BD03F0DAFE1146FFF7A9
:10019000EFFF00F020F803F0F8FE03B4FFF7F2FFE2
:1001A00003BC02F09BFE000008B50121402001F0D5
:1001B000AFFC6020ADF8000010208DF80300012096
:1001C0008DF802006946534801F0E6F96021514874
:1001D00001F091FA08BD90B000BF00BF0024A14615
:1001E00000BF02F075FE02F009FE4FF4165002F057
:1001F00084FE00F002FCFFF7D7FF40F2F311472026
:1002000000F0CAF901F065F800F02DFE642002F05C
:1002100032FE41A21821002001F039F840A2242129
:10022000002001F034F800F09EFE72E000F04CFE79
:100230003D48006804F07CFD05463C48006804F039
:1002400077FD05463A48006804F072FD824604F0E6
:10025000FFFB0746374A384B04F0FCFA054604F02A
:10026000C7FA04463548006804F062FD824604F08F
:10027000EFFB07462F4A304B04F0ECFA054604F03A
:10028000B7FA81462E482FA102680BA803F0D4F9D3
:10029000204604F0DDFB05462A460B462AA106A8A7
:1002A00003F0CAF9484604F0D3FB05462A460B463C
:1002B00025A101A803F0C0F90BAA0021084600F00F
:1002C000E6FF06AA1821202000F0E1FF01AA242160
:1002D000202000F0DCFF00F046FE012000F08EFC44
:1002E0001B490860022000F089FC19494860084653
:1002F00000681849884203DA6021064801F0FBF9DA
:10030000134840681449884203DA6021014801F02B
:10031000F0F98BE7001801404348323A0000000032
:100320004348333A00000000300000203400002031
:1003300038000020FCA9F1D24D62203F3C00002093
:100340004000002025356400252E346600000000A2
:10035000880000208D08D600CB87CF00704700BFF3
:10036000FEE700BFFEE700BFFEE700BFFEE7704705
:1003700070477047704700000CB500200190009056
:100380006C48006840F480306A49086000BF6948E2
:10039000006800F4003000900198401C0190009823
:1003A00018B90198B0F5A06FF1D16248006800F467
:1003B000003010B10120009001E000200090009872
:1003C000012843D15C48006840F010005A49086099
:1003D0000846006820F0030008600846006840F006
:1003E0000200086053484068524948600846406827
:1003F00048600846406840F48060486008464068AD
:1004000020F47C1048600846406840F4E8104860DA
:100410000846006840F08070086000BF45480068EA
:1004200000F000700028F9D04248406820F0030036
:10043000404948600846406840F00200486000BFFC
:100440003C48406800F00C000828F9D10CBD10B5FC
:10045000FFF792FF10BD10B53648006840F001006C
:1004600034490860084640683449084031494860CA
:1004700008460068324908402E490860084600686E
:1004800020F4802008600846406820F4FE004860A0
:100490004FF41F008860FFF7DAFF4FF00060294932
:1004A000086010BD10B5002100200022214B5B68C0
:1004B00003F00C0121B1042906D0082928D107E056
:1004C000214B224C236027E01F4B204C236023E06C
:1004D000184B5B6803F47010164B5B6803F48032B2
:1004E000022303EB904022B9194B4343174C23607E
:1004F0000DE0104B5B6803F4003323B1144B43430E
:10050000124C236003E0104B4343104C236003E084
:100510000D4B0E4C236000BF00BF064B5B68C3F35E
:1005200003130C4CE15C094B1B68CB40074C236068
:1005300010BD000000100240002002400000FFF843
:10054000FFFFF6FE08ED00E000127A000000002038
:1005500000093D0004000020094880470948004781
:10056000FEE7FEE7FEE7FEE7FEE7FEE7FEE7FEE763
:10057000FEE7FEE704480549054A064B70470000C0
:1005800057040008ED000008F8110020F8170020BB
:10059000F8130020F81300207FB505460C46012112
:1005A000022001F0C2FAADF80850ADF80440002076
:1005B000ADF80A00ADF8060001A94C4801F0E0FBD7
:1005C00001221146494801F052FF1D208DF800001C
:1005D00000208DF8010003208DF8020001208DF825
:1005E0000300684600F00FFF0121404801F024FF9E
:1005F0007FBD10B501213D4802F0E7F900283CD04D
:1006000001213A4802F0F2F939480068401C3849A3
:10061000086038480078012810D137480078401C1D
:1006200035490870084600780A2807DB0020314960
:10063000087031490870012030490870304800784E
:10064000012810D12F480078401C2E490870084618
:1006500000780A2807DB002029490870294908701A
:1006600001202949087022480068282805D3002065
:100670001F49086001202549087010BD7FB5054657
:100680000C460121042001F050FAADF80850ADF8F5
:1006900004400020ADF80A00ADF8060001A91C488E
:1006A00001F06EFB01221146194801F0E0FE1E2008
:1006B0008DF8000000208DF8010003208DF8020065
:1006C00001208DF80300684600F09DFE01211048CE
:1006D00001F0B2FE7FBD10B501210D4802F075F9A1
:1006E00018B101210A4802F081F910BD0004004050
:1006F0001C0000201600002017000020150000201C
:10070000190000201A00002018000020140000200A
:100710000008004008B50121082001F0F9F9C020C7
:10072000ADF8000010208DF8030003208DF80200C2
:1007300069469B4800F030FFC021994800F0D9FF7E
:1007400008BD08B50121082001F0E2F98020ADF8CC
:10075000000004208DF803006946914800F01CFF5A
:1007600008BD08B50121082001F0D2F98020ADF8BC
:10077000000010208DF8030003208DF80200694668
:10078000874800F009FF08BD002001E0411CC8B205
:100790002828FBDB704700B5012082490860FFF77D
:1007A000F3FF00208049C1F89801FFF7EDFF00BD7D
:1007B00010B5FFF7D6FF01207A49091D08607A4974
:1007C000C1F89801FFF7E0FF00207649091D086095
:1007D000FFF7DAFFFFF7D8FF00207349C1F898014F
:1007E00010BD10B5FFF7BDFF01206E490860002065
:1007F0006D49C1F89C01FFF7C7FF01206949091D38
:100800000860FFF7C1FF10BD10B50024FFF799FF86
:1008100001206449091D0860FFF7B6FF0120624905
:10082000C1F89801FFF7B0FF07E0601CC4B2FA2CD2
:1008300003DDFFF7D6FF012010BD5A487C38006861
:100840000028F2D15749086000BFF5E710B5FFF75F
:100850009BFFFFF786FF00205249091D0860FFF744
:1008600093FF01205049C1F89801FFF78DFF002048
:100870004C490860FFF788FF10BD10B500204949BA
:100880000860FFF76EFF01204749C1F89C01022074
:1008900002F0CDFA012043490860022002F0C7FAB5
:1008A00000204149C1F8980110BD70B50446FFF71A
:1008B00058FF00203B490860002511E004F080004B
:1008C00020B101203749091D086003E000203549A7
:1008D000091D0860FFF75FFF6006040E681CC5B2C3
:1008E000082DEBDB70BD70B50646FFF72AFF00242C
:1008F00000250EE06006040E2A487C3800680128B6
:1009000002D144F0010400E000BFFFF744FF681C7F
:10091000C5B2082DEEDB204670BDF8B504460D4685
:100920001646FFF745FF2A20FFF7BFFFFFF76CFFD2
:10093000FFF72AFF0120FFF7D6FF28400002C0B2D0
:100940008DF80000FFF782FF0120FFF7CCFF8DF844
:100950000100FFF77BFF012C0ED10120FFF7C3FF41
:1009600030408DF80200FFF771FF0120FFF7BBFF59
:100970008DF80300FFF76AFFFFF733FF9DF80000D3
:1009800000069DF8011040EA01409DF8021040EA7F
:1009900001209DF8031040EA01073846F8BD000029
:1009A000000C0140988121420080214270B506462A
:1009B0000C461546FFF7FCFE5420FFF776FFFFF7C5
:1009C00023FFFFF7E1FE3046FFF76FFFFFF71CFF45
:1009D000FFF7DAFE2046FFF768FFFFF715FFFFF786
:1009E000D3FE2846FFF761FFFFF70EFFFFF7CCFEAF
:1009F000FFF7F7FEFFF7C8FE70BD08B50121102014
:100A000001F086F80E20ADF8000010208DF80300EC
:100A100003208DF8020069468B4800F0BDFD0221DD
:100A2000894800F068FE0421874800F064FE082130
:100A3000854800F060FEFFF76DFECB2230210820D4
:100A4000FFF7B4FFCB2230210920FFF7AFFFCB2205
:100A500030210A20FFF7AAFFCB2230210B20FFF71D
:100A6000A5FF012220211420FFF7A0FF0122202151
:100A70001520FFF79BFF012220211620FFF796FF8C
:100A8000012220211720FFF791FF192200211020B9
:100A9000FFF78CFF192200211120FFF787FF192291
:100AA00000211220FFF782FF192200211320FFF7F7
:100AB0007DFF002211461920FFF778FF0C22D2217A
:100AC0001B20FFF773FF002250211E20FFF76EFF4F
:100AD000002250211F20FFF769FF00225021202013
:100AE000FFF764FF002250212120FFF75FFF012262
:100AF00016211A20FFF75AFF08BDF8B505460C4627
:100B0000FFF756FE5420FFF7D0FEFFF77DFEFFF7FC
:100B10003BFE2846FFF7C9FEFFF776FEFFF734FEDF
:100B2000FFF75FFEFFF730FEFFF742FE5520FFF7AD
:100B3000BCFEFFF769FEFFF727FE0120FFF7D3FE9B
:100B40008DF800009DF800000007000E8DF80000F1
:100B50009DF8000000118DF80000FFF777FEFFF709
:100B600013FE0120FFF7BFFE8DF80100FFF76EFEB8
:100B7000FFF737FEFFF708FEFFF71AFE5420FFF7D6
:100B800094FEFFF741FEFFF7FFFD2046FFF78DFEC5
:100B9000FFF73AFEFFF7F8FDFFF723FEFFF7F4FD3E
:100BA000FFF706FE5520FFF780FEFFF72DFEFFF74B
:100BB000EBFD0120FFF797FE8DF80200FFF746FEE0
:100BC000FFF7E2FD0120FFF78EFE8DF80300FFF72F
:100BD0003DFEFFF706FEFFF7D7FD9DF8000000067B
:100BE0009DF8011040EA01409DF8021040EA012002
:100BF0009DF8031040EA01063046F8BD70B5054681
:100C0000012D06D0022D0AD0032D0ED0042D18D1AF
:100C100011E001210020FFF770FF044611E00321DD
:100C20000220FFF76AFF04460BE005210420FFF7CE
:100C300064FF044605E007210620FFF75EFF044637
:100C400000BF00BF204670BD00100140AD480068E5
:100C500040F48050AB4908600846006840F40060EA
:100C600008600846006820F4804008600846006874
:100C700020F40050086070472DE9F04105460E460B
:100C80000027B8469F48006820F400509D4908603E
:100C90000846006820F4804008602DB108460068CE
:100CA00020F48050086005E09648006820F4006059
:100CB00094490860012002F0BAF8002423E091482A
:100CC000006840F400508F490860C4F10F01012012
:100CD0008840304030B18B48006840F480408949FA
:100CE000086005E08748006820F480408549086076
:100CF000012002F09CF88348006820F400508149EC
:100D00000860601CC4B2102CD9DB012002F08FF8FF
:100D10007C48006820F480407A49086000241BE089
:100D20007848006840F4005076490860012002F0DD
:100D30007EF87448001F006800F4004020B1C4F140
:100D40000F010120884007436E48006820F40050DE
:100D50006C490860601CC4B2102CE1DB6948006873
:100D600020F48040674908602DB10846006840F4CF
:100D70008050086005E06348006840F40060614905
:100D80000860B74202D10120BDE8F0810020FBE7F6
:100D90002DE9F04105460E4600275A48006820F428
:100DA0000050584908600846006820F480400860F8
:100DB0002DB10846006820F48050086005E05148D5
:100DC000006820F400604F490860012002F02FF80D
:100DD00000BF4C48001F006800F400400028F8D114
:100DE00000242BE04748006840F400504549086063
:100DF000C4F10F0101208840304030B14148006803
:100E000040F480403F49086005E03E48006820F417
:100E100080403C4908603B48001F006800F40040E7
:100E200020B1C4F10F010120884007433548006814
:100E300020F4005033490860601CC4B2102CD1DB90
:100E40003048006820F480402E4908600846006859
:100E500040F4805008600846006840F40060086074
:100E60003846BDE8F08108B50121402000F050FE71
:100E70004FF4F040ADF8000010208DF80300012081
:100E80008DF8020069461F480C3800F085FB0420ED
:100E90008DF803004003ADF80000694619480C388E
:100EA00000F07AFBFFF7D2FE48F68B710020FFF7C7
:100EB000E3FE4DF28B310020FFF7DEFE4FF28B3167
:100EC0000020FFF7D9FE08BD10B548F68B71002051
:100ED000FFF75EFF0C4908600A2001F0CCFF4EF2DC
:100EE0008B310020FFF754FF084908600A2001F009
:100EF000C2FF4FF28B310020FFF74AFF0449086020
:100F000010BD00000C1801403C00002040000020F3
:100F10003800002010B50A461AB10123FE4C2360A8
:100F200002E00023FC4C2360002116E00023FA4C71
:100F30000C34236000F080031BB10123241F2360C5
:100F400003E00023F44C083423600123F24C0C34FA
:100F500023604306180E4B1CD9B20829E6DB012397
:100F6000ED4C236010BD30B500241CE004F1B0014D
:100F7000C8B20021FFF7CEFF00210846FFF7CAFFE5
:100F800000211020FFF7C6FF002508E0E34901EB30
:100F9000C501085D0121FFF7BDFF681CC5B2802DAA
:100FA000F4DB601CC4B2082CE0DB30BD00B50021CE
:100FB0008D20FFF7AFFF00211420FFF7ABFF0021CA
:100FC000AF20FFF7A7FF00BD00B500218D20FFF780
:100FD000A1FF00211020FFF79DFF0021AE20FFF7A9
:100FE00099FF00BD30B500240CE0002506E000208C
:100FF000CA4901EBC5010855681CC5B2802DF6DB56
:10100000601CC4B2082CF0DBFFF7ADFF30BDF0B5BB
:10101000144600267F2801DC3F2900DDF0BD0B4689
:10102000CF1701EB5777FF10C7F10707FAB2CF17B9
:1010300001EB5777FF10A1EBC707FDB2C5F107071A
:101040000123BB40DEB24CB1B44B03EBC0039B5C4D
:101050003343B24F07EBC007BB5408E0AF4B03EB81
:10106000C0039B5CB343AD4F07EBC007BB5400BF4D
:10107000D4E72DE9F04F80460C4615461E46A346A0
:10108000A5F12000C5B200273EE00C2E07D105EBEC
:101090004500A34901EB800010F8079004E0A14847
:1010A00000EB051010F807904FF0000A26E009F059
:1010B000800028B121464046099AFFF7A8FF09E0C1
:1010C000099808B9012000E0002002462146404668
:1010D000FFF79DFF4FEA49604FEA1069601CC4B2F8
:1010E000A4EB0B00B04205D15C4608F1010000F012
:1010F000FF0806E00AF1010000F0FF0ABAF1080F4C
:10110000D5DB00BF781CC7B2B742BEDBBDE8F08FAD
:1011100010B50246012000E050430B00A1F101048C
:10112000E1B2F9D110BD2DE9FF4F81B007469146DC
:101130001E460E9D4FF0000A002439E0301B401E71
:10114000C1B20A20FFF7E4FFB9FBF0F00A21B0FBBF
:10115000F1F201FB1208BAF1000F16D1701EA04285
:1011600013DDB8F1000F0ED10120AB4605EBDB71AA
:10117000491001FB04710090C8B22B46202202994D
:10118000FFF777FF12E04FF0010A0120AB4605EBB5
:10119000DB71491001FB04710090C8B208F1300105
:1011A000CAB22B460299FFF764FF00BF601CC4B2AD
:1011B000B442C3DB05B0BDE8F08F2DE9FF4F83B02B
:1011C000054616461F46109C4FF0000BDA464FF0BE
:1011D0007E51304603F0CAFC019003F089FD83463E
:1011E000584603F0A5FD3146019003F081FE0290C0
:1011F0001198381A00F0FF0A53465A4600942846C0
:101200000499FFF790FF012004EBD471491001FB12
:101210000A51CDE90004C8B223462E220499FFF7F3
:1012200028FF0AF1010000F0FF082AE03E49029879
:1012300003F092FD02904FF07E51029803F096FC6D
:10124000019003F055FD00F0FF09484603F070FDE2
:101250000190029903F04CFE0290012004EBD4713E
:10126000491001FB0851CDE90004C8B209F1300171
:10127000CAB223460499FFF7FCFE08F1010000F012
:10128000FF08781C8045D1DB07B0BDE8F08F78B54A
:1012900005460E46144618E07A2D03DD002506F1BA
:1012A0001000C6B23A2E04DD002005460646FFF7C0
:1012B00099FE0120009022780C2331462846FFF742
:1012C000D8FE05F10800C5B2641C20780028E3D1DF
:1012D00078BD08B50121202000F01AFC4FF47040C1
:1012E000ADF8000010208DF8030001208DF80200F9
:1012F00069460E4800F050F900200749091D0860B2
:10130000642001F0B8FD01200949C1F8B4010021B1
:10131000AE20FFF7FFFD0DE0B081224298000020D3
:10132000F24F0008665400080000204100140140FC
:10133000008022420021D520FFF7ECFD0021502043
:10134000FFF7E8FD0021A820FFF7E4FD00213F2082
:10135000FFF7E0FD0021D320FFF7DCFD0021084668
:10136000FFF7D8FD00214020FFF7D4FD00218D209C
:10137000FFF7D0FD00211420FFF7CCFD0021202035
:10138000FFF7C8FD00210220FFF7C4FD0021A120C6
:10139000FFF7C0FD0021C020FFF7BCFD0021DA20CF
:1013A000FFF7B8FD00211220FFF7B4FD00218120D6
:1013B000FFF7B0FD0021EF20FFF7ACFD0021D920A1
:1013C000FFF7A8FD0021F120FFF7A4FD0021DB209D
:1013D000FFF7A0FD00213020FFF79CFD0021A42095
:1013E000FFF798FD0021A620FFF794FD0021AF2014
:1013F000FFF790FDFFF7F6FD08BD000031490143FE
:10140000314A1160704770B5002100230F22C47863
:1014100004B32D4C246804F4E064C4F5E064210AAC
:10142000C1F10403CA40447804FA03F184781440FB
:1014300021430901254C0678A155047804F01F05C5
:101440000124AC4005786D11AD0005F1E025C5F82B
:10145000004109E0047804F01F050124AC401C4D54
:101460000678761145F8264070BD1A4A0A400243B4
:10147000154B1B1F1A60704739B1134A121D1268B1
:101480000243114B1B1D1A6006E00F4A121D126821
:1014900082430D4B1B1D1A607047042808D14FF082
:1014A000E021096941F004014FF0E022116107E0F9
:1014B0004FF0E021096921F004014FF0E0221161B1
:1014C000704700000000FA050CED00E000E400E0C9
:1014D00080E100E080FFFF1F10B50446CC48844245
:1014E00008D10121042000F02DFB0021042000F090
:1014F00029FB46E0C748844208D10121082000F0BA
:1015000021FB0021082000F01DFB3AE0C248844284
:1015100008D10121102000F015FB0021102000F05F
:1015200011FB2EE0BD48844208D10121202000F0AB
:1015300009FB0021202000F005FB22E0B84884428E
:1015400008D10121402000F0FDFA0021402000F0E8
:10155000F9FA16E0B348844208D10121802000F056
:10156000F1FA0021802000F0EDFA0AE0AE48844252
:1015700007D10121801500F0E5FA0021A01500F047
:10158000E1FA10BD10B50121084600F0DBFA002198
:10159000012000F0D7FA10BD2DE9F04102460025E8
:1015A0000026002000230024002791F803C00CF03F
:1015B0000F0591F803C00CF0100CBCF1000F03D024
:1015C00091F802C04CEA050591F800C0BCF1000F8B
:1015D00031D0146800202BE04FF0010C0CFA00F31E
:1015E000B1F800C00CEA03069E4220D183004FF000
:1015F0000F0C0CFA03F7BC4305FA03FC4CEA040495
:1016000091F803C0BCF1280F06D14FF0010C0CFA81
:1016100000FCC2F814C00AE091F803C0BCF1480F06
:1016200005D14FF0010C0CFA00FCC2F810C0401CB0
:101630000828D1D31460B1F800C0BCF1FF0F34DD2D
:10164000546800202EE000F1080C4FF0010808FA61
:101650000CF3B1F800C00CEA03069E4221D18300CE
:101660004FF00F0C0CFA03F7BC4305FA03FC4CEAED
:10167000040491F803C0BCF1280F05D100F1080C57
:1016800008FA0CF8C2F8148091F803C0BCF1480FB6
:1016900007D100F1080C4FF0010808FA0CF8C2F865
:1016A0001080401C0828CED35460BDE8F0814FF66E
:1016B000FF710180022181700421C17070470246D0
:1016C000002093680B400BB1012000E00020704720
:1016D0000146886880B2704702460020D3680B40FC
:1016E0000BB1012000E0002070470146C86880B2BD
:1016F000704701617047416170470AB1016100E0C4
:1017000041617047C16070474FF480320A43826183
:101710008161826182698269704702460020434B81
:1017200018684FF68073184040EA021008433F4B98
:10173000186070473E49C8617047F0B50A460023FB
:1017400000240021002500F00046B6F1004F02D130
:10175000364EF16901E0354E7168C0F3034583B23E
:1017600000F44016B6F5401F08D121F070612F4EED
:10177000766826F070662D4F7E6012E000F48016C9
:10178000B6F5801F06D1032606FA05F4A14341F001
:10179000706106E0460D360103FA06F6B14341F0EA
:1017A000706122B1460D360103FA06F6314300F0AE
:1017B0000046B6F1004F02D11C4EF16101E01B4E14
:1017C0007160F0BD30B500228B071C0F0F2303FAA8
:1017D00004F2164B08338C1053F824309343134C07
:1017E00008348D1044F8253023468C1053F82430EB
:1017F0008C07240F00FA04F423430C4C08348D109A
:1018000044F8253030BD0A49DC31086070470000DB
:1018100000080140000C014000100140001401408C
:1018200000180140001C0140002001400000014060
:1018300000002042DF48006840F00100DD490860F8
:1018400008464068DC490840DA49486008460068B4
:10185000DA490840D74908600846006820F480202B
:1018600008600846406820F4FE0048604FF41F00FE
:1018700088607047CF49096821F48031CD4A1160F2
:101880001146096821F480211160B0F5803F03D032
:10189000B0F5802F0ED106E0C649096841F48031C9
:1018A000C44A116007E0C349096841F4A021C14A54
:1018B000116000E000BF00BF704710B50146002274
:1018C000002300204A11012A02D1BA4C236806E005
:1018D000022A02D1B74C236A01E0B64C636A01F0D8
:1018E0001F02012494401C400CB1012000E00020A4
:1018F00010BD38B5002000900024002500BF312025
:10190000FFF7DBFF05460098401C00900098B0F5FB
:10191000A06F01D0002DF2D03120FFF7CEFF08B12B
:10192000012400E00024204638BD01460020A14AE1
:10193000106820F0F80040EAC10010607047A0492C
:1019400008607047024600209A4B586820F47C10CB
:1019500042EA01031843974B58607047984908665C
:10196000704701460020934A506820F00300084366
:10197000506070478F48406800F00C007047014687
:1019800000208C4A506820F0F000084350607047F7
:1019900001460020874A506820F4E0600843506008
:1019A000704701460020834A506820F4605040EAA6
:1019B000C1005060704729B17E4A527A02437D4B84
:1019C0005A7204E07B4A527A82437A4B5A727047C9
:1019D0007B49D8310860704701460020754A50683D
:1019E00020F440400843506070470021714A203283
:1019F0001170704A82F82010012802D004280AD100
:101A000004E001216B4A2032117005E00521694A8A
:101A10002032117000E000BF00BF704769490860C4
:101A200070476449096A0143624A11627047654917
:101A300044390860704730B500210022002400239B
:101A40005C4D6D6805F00C0121B1042905D0082911
:101A500023D105E05C4D056022E05B4D05601FE091
:101A6000544D6D6805F47012524D6D6805F4803464
:101A7000022505EB92421CB9544D554305600BE01D
:101A80004C4D6D6805F400351DB1504D5543056052
:101A900002E04D4D5543056002E04B4D056000BF2F
:101AA00000BF444D6D6805F0F0010909484D6B5CBD
:101AB0000568DD4045603F4D6D6805F4E061090A49
:101AC000434D6B5C4568DD4085603A4D6D6805F4BB
:101AD0006051C90A3E4D6B5C4568DD40C560354DBF
:101AE0006D6805F44041890B3A4D6B5CC568B5FBE8
:101AF000F3F5056130BD29B12E4A526902432D4BE1
:101B00005A6104E02B4A526982432A4B5A6170475A
:101B100029B1284A92690243264B9A6104E0254A7A
:101B200092698243234B9A61704729B1214AD26955
:101B30000243204BDA6104E01E4AD26982431D4B06
:101B4000DA61704729B11B4AD2680243194BDA6047
:101B500004E0184AD2688243164BDA60704729B114
:101B6000144A12690243134B1A6104E0114A1269C4
:101B70008243104B1A617047124940390860704720
:101B80000F49C86470470B49C87170470948406ADB
:101B900040F0807007494862704701460020054ABE
:101BA00092680A400AB1012000E000207047014914
:101BB00088727047001002400000FFF8FFFFF6FE39
:101BC000000042428004424200127A0000093D00B7
:101BD000440000205400002010B50446FE48844212
:101BE00008D10121C014FFF7ADFF0021E014FFF779
:101BF000A9FFC4E0B4F1804F08D101210846FFF7E6
:101C0000AEFF00210120FFF7AAFFB8E0F3488442AD
:101C100008D101210220FFF7A2FF00210220FFF7D7
:101C20009EFFACE0EE48844208D101210420FFF77A
:101C300096FF00210420FFF792FFA0E0E9488442CC
:101C400008D101210820FFF78AFF00210820FFF7B3
:101C500086FF94E0E448844208D101211020FFF778
:101C60007EFF00211020FFF77AFF88E0DF488442E2
:101C700008D101212020FFF772FF00212020FFF76B
:101C80006EFF7CE0DA48844208D101214014FFF75E
:101C900059FF00216014FFF755FF70E0D5488442DA
:101CA00009D10121C804FFF74DFF00214FF40020A6
:101CB000FFF748FF63E0D048844209D101210805BD
:101CC000FFF740FF00214FF48010FFF73BFF56E085
:101CD000CA48844209D101214805FFF733FF00219A
:101CE0004FF40010FFF72EFF49E0C548844208D1A9
:101CF00001214020FFF733FF00214020FFF72FFF95
:101D00003DE0C048844208D101218020FFF727FF31
:101D100000218020FFF723FF31E0BB48844208D137
:101D200001218015FFF71BFF0021A015FFF717FF0A
:101D300025E0B648844209D101210804FFF702FFDB
:101D400000214FF48030FFF7FDFE18E0B0488442D8
:101D500009D101214804FFF7F5FE00214FF40030BE
:101D6000FFF7F0FE0BE0AB48844208D10121880464
:101D7000FFF7E8FE00214FF48020FFF7E3FE10BDDF
:101D800000220288944B98420ED0994B98420BD077
:101D9000B0F1804F08D0914B984205D0904B9842BB
:101DA00002D0904B984204D14FF68F731A404B8863
:101DB0001A438D4B984207D08C4B984204D04FF673
:101DC000FF431A40CB881A4302808B8883850B8897
:101DD0000385814B98420BD0854B984208D08B4BA2
:101DE000984205D08A4B984202D08A4B984201D142
:101DF0000B7A038601238382704770B5002400228A
:101E00000023058C4FF6FE7635400584028C8388CE
:101E1000048B4FF68F752C40B51E2C400D882C433B
:101E2000751E2A400D892A434D882A436A4DA842CF
:101E30000BD06F4DA84208D0744DA84205D0744D08
:101E4000A84202D0734DA84213D14FF6F7752A402D
:101E50004D892A434FF6FB752A408D882A434FF659
:101E6000FF652B404FF6FF552B408D892B43CD89C5
:101E70002B4383800483CD888586028470BD70B532
:101E8000002400220023058C4FF6EF7635400584B0
:101E9000028C8388048B48F6FF752C404FF6FF4573
:101EA0002C400D884FF6FF7606EA05252C434FF6A9
:101EB000DF752A400D8906EA05152A434D8806EA92
:101EC00005152A43444DA84202D0494DA8421DD1D0
:101ED0004FF67F752A404D894FF6FF7606EA0515C5
:101EE0002A434FF6BF752A408D8806EA05152A4316
:101EF0004FF6FF352B404FF2FF752B408D8906EAD8
:101F000085052B43CD8906EA85052B438380048311
:101F1000CD880587028470BD70B50024002200239F
:101F2000058C4FF6FF6635400584028C8388848BD0
:101F30004FF68F752C404FF6FC752C400D882C43C6
:101F40004FF6FF552A400D894FF6FF7606EA052524
:101F50002A434D8806EA05252A431F4DA84202D090
:101F6000234DA8421DD14FF2FF752A404D894FF6EF
:101F7000FF7606EA05252A434FF6FF352A408D886D
:101F800006EA05252A434EF6FF752B404DF6FF75F0
:101F90002B408D8906EA05152B43CD8906EA0515E8
:101FA0002B4383808483CD888587028470BD70B580
:101FB000002200230024058C4EF6FF763540058470
:101FC000038C8488828B48F6FF752A404FF6FF45C4
:101FD0002A400D8820E00000002C01400004004051
:101FE00000080040000C00400010004000140040B9
:101FF00000340140004C01400050014000540140B9
:1020000000180040001C004000200040004001403B
:1020100000440140004801404FF6FF7606EA0525DE
:102020002A434DF6FF752B400D8906EA05352B43F3
:102030004D8806EA05352B43FA4DA84202D0FA4DE9
:10204000A84208D14BF6FF752C408D894FF6FF76DC
:1020500006EA85152C4384808283CD88A0F8405001
:10206000038470BD828B4FF2FF331A408283828BD0
:102070004FF6FF7303EA01231A4382837047F0B5DA
:102080000C461546002200210026078C4EF6FF7CE8
:1020900007EA0C070784828B018C4FF6FF7707EA6B
:1020A000043640F6FF473A404FF6FF7707EA052728
:1020B0003A434FF6FF7707EA03373A43D94FB8421E
:1020C0000ED0D94FB8420BD0B0F1804F08D0D74FC7
:1020D000B84205D0D64FB84202D0D64FB84206D14A
:1020E0004DF6FF77394046F48057394305E047F60F
:1020F000FF57394044F48057394382830184F0BD4F
:10210000828B4FF6F3731A408283828B0A43828359
:102110007047F0B50C461546002200210026078CBA
:102120004FF6FF6C07EA0C070784828B018C4FF691
:10213000FF7707EA04264FF60C773A404FF6FF7711
:1021400007EA03172F433A43B64FB8420ED0B64FB3
:10215000B8420BD0B0F1804F08D0B44FB84205D090
:10216000B34FB84202D0B34FB84206D14FF6FF5733
:10217000394046F48077394305E04FF2FF57394044
:1021800044F48077394382830184F0BD028B4FF29F
:10219000FF331A400283028B4FF6FF7303EA0123D9
:1021A0001A4302837047F0B50C4615460022002101
:1021B0000026078C4FF6EF7C07EA0C070784028B9A
:1021C000018C4FF6FF7707EA041640F6FF473A40C6
:1021D0004FF6FF7707EA03373A434FF6FF7707EAF0
:1021E00005273A438F4FB8420ED08F4FB8420BD0DD
:1021F000B0F1804F08D08D4FB84205D08C4FB84217
:1022000002D08C4FB84206D14FF6DF77394046F006
:102210001007394305E04FF65F77394044F0100767
:10222000394302830184F0BD028B4FF6F3731A40E9
:102230000283028B0A4302837047F0B50C461546B1
:1022400000220021068C4FF6FE773E400684028B6A
:10225000018C4FF60C7632407E1C06EA03162E43A4
:102260003243704EB0420ED06F4EB0420BD0B0F140
:10227000804F08D06D4EB04205D06D4EB04202D0B6
:102280006C4EB04206D14FF6FD76314044F0010667
:10229000314305E04FF6F576314044F00106314315
:1022A00002830184F0BD70B505460C465D48854249
:1022B0000ED05D4885420BD0B5F1804F08D05B4809
:1022C000854205D05A48854202D05A48854200D1FD
:1022D00000E000BF208850B92389A2886188284681
:1022E000FFF7ABFFE1882846FFF79EFF25E0208837
:1022F00004280AD12389A28861882846FFF753FF62
:10230000E1882846FFF742FF17E0208808280AD115
:102310002389A28861882846FFF7FBFEE1882846CA
:10232000FFF7EEFE09E02389A28861882846FFF7BF
:10233000A6FEE1882846FFF795FE70BD2DE9F04125
:1023400005460C4600260127608808B9022600E0F1
:102350000026A088012801D1022700E0012720885B
:10236000A0B92389A28861882846FFF766FFE18823
:102370002846FFF759FF23893A4631462846FFF79A
:1023800012FFE1882846FFF701FF13E02389A288A6
:1023900061882846FFF707FFE1882846FFF7F6FE29
:1023A00023893A4631462846FFF747FFE188284609
:1023B000FFF73AFFBDE8F0810A884B881A438B8803
:1023C0001A43CB881A430B891A434B891A438B89CA
:1023D0001A43A0F8442070474FF6FF718180002116
:1023E0000180C180418001727047002101804180DD
:1023F0008180C180018141818181C181704700213B
:1024000001804180012181800021C18001817047CC
:102410000021018041808180C180018141818181D1
:1024200070470000002C01400034014000040040CF
:1024300000080040000C004021B1028842F0010277
:10244000028004E002884FF6FE731A400280704753
:1024500031B1B0F8442042F40042A0F8442005E035
:10246000B0F84420C2F30E02A0F8442070471AB11D
:1024700083890B43838102E083898B438381704787
:102480008182704741EA0203A0F8483070471AB1D0
:1024900083890B43838102E083898B438381704767
:1024A00001894FF6F8721140018170470A460021F8
:1024B00001894FF68F73194011430181704730B580
:1024C00004460D4629462046FFF7F0FF208940F0DC
:1024D0000700208130BD2DE9F04104460D46164627
:1024E0001F46602D06D13B46012231462046FFF7AC
:1024F0005AFE05E03B46012231462046FFF79DFE8D
:1025000029462046FFF7D2FF208940F007002081AE
:10251000BDE8F08130B50C4600210189C9B24FF603
:10252000FF7505EA0325154325432943018130BD85
:102530002DE9F04105460E461746984600244346CD
:102540003A4631462846FFF7E5FF2C894FF6F870EA
:10255000044044F007044FF68F70044044F07004C8
:102560002C81BDE8F081F0B504460D4616461F46A5
:102570003B46324629462046FFF7CCFF208940F4EF
:1025800080402081F0BD0185828270470A4600218B
:1025900001884FF68F731940114301807047F0B5E1
:1025A0000C4615461E460021002200230189028B9D
:1025B000038C4FF6F877394021434FF6FC473A40F9
:1025C00040F201173A434FF6DD773B404FF6FF7775
:1025D00007EA06172F433B43018102830384F0BDC2
:1025E0000A460021018B4FF68F7319401143018376
:1025F00070470A460021018B48F6FF7319404FF6D9
:10260000FF7303EA02231943018370470A4600213E
:10261000818B4FF68F7319401143818370470A46AF
:102620000021818B48F6FF7319404FF6FF7303EAD0
:10263000022319438183704721B1028842F080024E
:10264000028004E002884FF67F731A4002807047D0
:1026500021B1828842F00402828004E082884FF631
:10266000FB731A408280704721B1828842F00802D1
:10267000828004E082884FF6F7731A4082807047A8
:1026800021B1828842F00102828004E082884FF604
:10269000FE731A40828070470A460021018B4FF674
:1026A000F77319401143018370470A460021018BDB
:1026B0004FF2FF7319404FF6FF7303EA02231943E9
:1026C000018370470A460021818B4FF6F77319404A
:1026D0001143818370470A460021818B4FF2FF73BB
:1026E00019404FF6FF7303EA0223194381837047B1
:1026F0000A460021018B4FF6FB73194011430183F9
:1027000070470A460021018B4FF6FF3319404FF600
:10271000FF7303EA02231943018370470A4600212D
:10272000818B4FF6FB7319401143818370470A4632
:102730000021818B4FF6FF3319404FF6FF7303EAF8
:1027400002231943818370470A460021018B4FF60B
:102750007F7319401143018370470A460021018BA2
:10276000C1F30E014FF6FF7303EA022319430183FD
:1027700070470A460021818B4FF67F731940114341
:10278000818370470A460021818BC1F30E014FF609
:10279000FF7303EA02231943818370470A4600212D
:1027A000018C4FF6FD7319401143018470470A46AE
:1027B0000021018C4FF6F7731940114301847047D3
:1027C0000A460021018C4FF6DF7319404FF6FF7364
:1027D00003EA02131943018470470A460021018C61
:1027E0004FF67F7319404FF6FF7303EA0213194344
:1027F000018470470A460021018C4FF6FF531940AF
:102800004FF6FF7303EA02231943018470470A4617
:102810000021018C4FF2FF7319404FF6FF7303EA5A
:1028200002231943018470470A460021018C4DF6AA
:10283000FF7319404FF6FF7303EA02331943018413
:10284000704730B5002301248C40A3B2048C9C4314
:102850000484048C02FA01F5ADB22C43048430BD2B
:1028600030B5002304248C40A3B2048C9C43048420
:10287000048C02FA01F5ADB22C43048430BD70B56E
:102880000346002000241846183001258D40ACB2C4
:102890001D8CA5431D8409B1082909D100EB6100F5
:1028A000056825F0700505600568154305600EE0B4
:1028B0000D1FC5F34E052844056825F4E045056065
:1028C00005684FF6FF7606EA02263543056070BDBF
:1028D00021B1028842F00202028004E002884FF631
:1028E000FD731A400280704721B1028842F0040251
:1028F000028004E002884FF6FB731A4002807047A2
:1029000021B1828842F08002828004E082884FF602
:102910007F731A408280704702884FF6F7731A401F
:10292000028002880A430280704782884FF68F73C4
:102930001A40828082880A438280704702894FF65B
:10294000F8731A40028102890A43028170470289A2
:102950004FF67F731A40028102890A430281704751
:1029600081847047818570478186704701877047F1
:1029700081877047A0F84010704702884FF6FF43E8
:102980001A40028002880A43028070470146888EFE
:1029900070470146088F70470146888F704701468F
:1029A000B1F8400070470146888C70470146088D99
:1029B000704702460020138A0B400BB1012000E053
:1029C00000207047CA430282704730B5024600209B
:1029D00000230024158A05EA0103958905EA01040C
:1029E00013B10CB1012000E0002030BDCA430282C7
:1029F0007047000010B50446FB48844209D101210C
:102A00008803FFF79FF800214FF48040FFF79AF802
:102A100032E0F648844209D101214804FFF79FF8CB
:102A200000214FF40030FFF79AF825E0F048844287
:102A300009D101218804FFF792F800214FF480208A
:102A4000FFF78DF818E0EB48844209D10121C80452
:102A5000FFF785F800214FF40020FFF780F80BE026
:102A6000E548844208D101210805FFF778F80021E4
:102A70004FF48010FFF773F810BD2DE9F04786B0D2
:102A800005460E460024A24600BFA1460027B08995
:102A900000B100BF2F462C8A4CF6FF700440F0882E
:102AA00004432C82AC894EF6F3100440B08831897F
:102AB0000843718908430443AC81AC8A4FF6FF4058
:102AC0000440B0890443AC8201A8FEF7B4FFC648B5
:102AD000874202D1DDF810A001E0DDF80CA0A88942
:102AE00000F4004040B10AEBCA0000EB0A10316864
:102AF0004900B0FBF1F807E00AEBCA0000EB0A104E
:102B000031688900B0FBF1F86420B8FBF0F00401F3
:102B10002009642101FB1089A88900F4004040B11C
:102B2000322000EBC900B0FBF1F000F007000443D5
:102B300008E0322000EB09106421B0FBF1F000F056
:102B40000F0004432C8106B0BDE8F0874FF4165106
:102B5000016000218180C18001810C21418100211F
:102B60008181704710B502460020108A4FF2FF03A2
:102B700018400B884C8823438C882343CC882343FC
:102B80001843108210BD0021018041808180C180E6
:102B9000704721B1828942F40052828104E0828927
:102BA0004DF6FF731A4082817047F0B5034600244A
:102BB00000260025002040F66A17B94200D100BF68
:102BC0001846C1F3421401F01F06012707FA06F563
:102BD000012C01D10C3004E0022C01D1103000E0B6
:102BE00014301AB107682F43076002E00768AF434B
:102BF0000760F0BD1AB1838A0B43838202E0838AA7
:102C00008B4383827047028A4FF6F0731A40028228
:102C1000028A0A430282704782894FF2FF731A4088
:102C2000828182890A438281704721B1828942F080
:102C30000202828104E082894FF6FD731A4082818C
:102C40007047028A4FF6DF731A400282028A0A43F3
:102C50000282704721B1028A42F48042028204E07B
:102C6000028A4BF6FF731A4002827047C1F30802D2
:102C70008280704701468888C0F3080070478189C8
:102C800041F0010181817047028BD2B20283028B35
:102C900042EA012202837047028B02F47F420283E0
:102CA000028B0A430283704721B1828A42F02002DC
:102CB000828204E0828A4FF6DF731A408282704774
:102CC00021B1828A42F01002828204E0828A4FF6A9
:102CD000EF731A408282704721B1828A42F0080263
:102CE000828204E0828A4FF6F7731A40828270472C
:102CF00021B1828942F40042828103E08289C2F3D9
:102D00000E028281704721B1828A42F4006282827F
:102D100004E0828A4FF2FF731A4082827047828AEF
:102D20004FF6FB731A408282828A0A43828270477E
:102D300021B1828A42F00202828204E0828A4FF646
:102D4000FD731A408282704702460020B1F5007F71
:102D500000D100BF13880B400BB1012000E0002020
:102D6000704701F40072B2F5007F00D100BFCA4382
:102D70000280704770B50246002400230025002021
:102D800040F66A16B14200D100BFC1F3421501F00E
:102D90001F03012606FA03F3012D02D19689334061
:102DA00006E0022D02D1168A334001E0968A3340B4
:102DB0000C12012606FA04F41688344013B10CB143
:102DC000012000E0002070BD10B50022002340F675
:102DD0006A14A14200D100BF0A1201249440A3B298
:102DE000DC43048010BD0000003801400044004076
:102DF00000480040004C00400050004010B56FF00B
:102E00000400FEF74AFB2E4800682E49B0FBF1F0A3
:102E10002D4908700846007800EB4001C1EBC01056
:102E20004FF6FF7101EAC0002849088010BD014635
:102E3000254A12784A434FF0E0235A6100229A61F2
:102E40001A46126942F001021A6100BF4FF0E022F7
:102E5000106900F001021AB100F48032002AF5D0A6
:102E60004FF0E022126922F001024FF0E0231A61D4
:102E700000229A6170470146144A12884A434FF073
:102E8000E0235A6100229A611A46126942F0010257
:102E90001A6100BF4FF0E022106900F001021AB180
:102EA00000F48032002AF5D04FF0E022126922F0BF
:102EB00001024FF0E0231A6100229A61704700007E
:102EC0000000002000127A00580000205A00002064
:102ED00010B54FF4A060FEF791FA10BD014600BF97
:102EE000704700BFFE4A128802F04002002AF9D063
:102EF000C2B2FB4B1B1D1A80704710B586B004464A
:102F0000012144F20400FEF703FEF548FFF772FDCD
:102F10004FF40070ADF8140003208DF8160018204F
:102F20008DF8170005A9EF48FEF736FB4FF48060D7
:102F3000ADF8140004208DF8170005A9E948FEF744
:102F40002BFB25208DF8000003208DF801008DF863
:102F5000020001208DF803006846FEF754FA019440
:102F60000020ADF80800ADF80A00ADF80C00ADF88F
:102F700010000C20ADF80E0001A9D948FFF77DFD27
:102F8000012240F22551D648FFF70FFE012240F200
:102F90002771D348FFF709FE0121D148FFF7F9FD5A
:102FA0000020D1490860D149086006B010BD10B5B5
:102FB00086B0044601210420FEF7AAFD0121480441
:102FC000FEF7B3FDCA48FFF715FD0420ADF8140065
:102FD00003208DF8160018208DF8170005A9C148A8
:102FE000FEF7DAFA0820ADF8140004208DF8170077
:102FF00005A9BC48FEF7D0FA26208DF80000032072
:103000008DF801008DF8020001208DF8030068465C
:10301000FEF7F9F901940020ADF80800ADF80A00B8
:10302000ADF80C00ADF810000C20ADF80E0001A9B1
:10303000AF48FFF722FD012240F22551AC48FFF7CF
:10304000B4FD012240F22771A948FFF7AEFD01212E
:10305000A748FFF79EFD06B010BD10B586B0044628
:1030600001210820FEF754FD01218804FEF75DFDD3
:10307000A048FFF7BFFC4FF48060ADF814000320B8
:103080008DF8160018208DF8170005A99A48FEF74C
:1030900083FA4FF40060ADF8140004208DF8170097
:1030A00005A99548FEF778FA27208DF8000003203F
:1030B0008DF801008DF8020001208DF803006846AC
:1030C000FEF7A1F901940020ADF80800ADF80A0060
:1030D000ADF80C00ADF810000C20ADF80E0001A901
:1030E0008448FFF7CAFC012240F225518148FFF7CE
:1030F0005CFD012240F227717E48FFF756FD012159
:103100007C48FFF746FD06B010BD10B50821744895
:10311000FFF71AFE012806D17148FFF7ABFD082121
:103120006F48FFF71EFE40F225516D48FFF722FE63
:10313000D0B16B48FFF79EFDC4B201206F49087003
:1031400000206F4908706F480088C0F30D006E4979
:103150000C546C480088401C6A4908800846008866
:10316000FF2801DD0020088040F227715C48FFF74E
:1031700001FE18B340F227715948FFF725FE634856
:10318000594A1268815C5648FFF770FD564800683E
:10319000401C55490860084600685449096888423F
:1031A0000CD3002240F227714D48FFF7FEFC0020AF
:1031B0004E4908604C4908605549087010BD10B56B
:1031C00008214B48FFF7C0FD012806D14848FFF70A
:1031D00051FD08214648FFF7C4FD40F225514448FF
:1031E000FFF7C8FDA0B14248FFF744FDC4B201207B
:1031F0004249087000204249087046480088C0F3E0
:103200000D0045490C5443480088401C4149088042
:1032100040F227713648FFF7ADFD18B340F2277131
:103220003348FFF7D1FD39482F4A1268815C304896
:10323000FFF71CFD2C480068401C2B49086008461D
:1032400000682A49096888420CD3002240F227719D
:103250002748FFF7AAFC002024490860224908609B
:103260002B49087010BD10B508212248FFF76CFDEE
:10327000012806D11F48FFF7FDFC08211D48FFF774
:1032800070FD40F225511B48FFF774FD88B11948C5
:10329000FFF7F0FCC4B20120184908701F480088ED
:1032A000C0F30D001E490C541C480088401C1B49EB
:1032B000088040F227710F48FFF75CFD90B340F2A1
:1032C00027710C48FFF780FD1048074A1268815C9F
:1032D0000848FFF7CBFC04480068401C024922E084
:1032E00000380140000801407000002074000020F8
:1032F0000044004000480040000C0140160000203F
:103300001700002064000020980500209804002089
:103310007800002066000020980700206800002048
:103320009809002013E0086008460068B049096861
:1033300088420CD3002240F22771AE48FFF735FCDB
:103340000020AB490860AC490860AC49087010BD6A
:1033500010B50821AA48FFF7F7FC012806D1A848B4
:10336000FFF788FC0821A648FFF7FBFC40F2255137
:10337000A348FFF7FFFCD0B1A148FFF77BFCC4B224
:103380000120A049087000209F4908709F480088CC
:10339000C0F30D009E490C549C480088401C9B497A
:1033A000088008460088FF2801DD0020088040F2E0
:1033B00027719348FFF7DEFC80B340F227719048F5
:1033C000FFF702FD934802680068401C914B1860AB
:1033D0009148815C8A48FFF749FC8E4800688F4914
:1033E000096888421AD3002240F227718448FFF707
:1033F000DCFB814800688749096808447E49086009
:103400007B480068854909680844794908600020BC
:10341000824908607F4908607849087010BD10B57E
:1034200008217F48FFF790FC012806D17C48FFF770
:1034300021FC08217A48FFF794FC40F22551784896
:10344000FFF798FCA0B17648FFF714FCC4B27548AA
:103450000088C0F30D0074490C5472480088401C69
:103460007049088008460088FF2801DD0020088098
:1034700010BD70B505460E46002400BF0CE0295D66
:103480006A48FFF7F3FB00BF40216848FFF75CFC88
:103490000128F9D1601CC4B2B442F0DB70BD70B534
:1034A00005460E46002400BF0CE0295D6048FFF78A
:1034B000DDFB00BF40215E48FFF746FC0128F9D143
:1034C000601CC4B2B442F0DB70BD70B505460E4658
:1034D000002400BF0CE0295D4648FFF7C7FB00BF92
:1034E00040214448FFF730FC0128F9D1601CC4B2E8
:1034F000B442F0DB70BD70B505460E46002400BF37
:103500000CE0295D3E48FFF7B1FB00BF40213C487D
:10351000FFF71AFC0128F9D1601CC4B2B442F0DBF9
:1035200070BD70B505460E46002400BF0CE0295D55
:103530003B48FFF79BFB00BF40213948FFF704FCE5
:103540000128F9D1601CC4B2B442F0DB70BD2DE992
:10355000F04107460E461546254800682844B0F558
:10356000807F0ED800240AE0315D2148026800689F
:10357000401C1F4B186028488154601C84B2AC4228
:10358000F2DB1D48006840B91948006828B10122E3
:1035900040F227712548FFF708FBBDE8F0812DE9CF
:1035A000F04107460E4615461C4800682844B0F511
:1035B000807F0ED800240AE0315D18480268006858
:1035C000401C164B186014488154601C84B2AC42F5
:1035D000F2DB1048006840B91048006828B10122A9
:1035E00040F227710648FFF7E0FABDE8F0810000DD
:1035F0007400002000480040700000207800002087
:10360000004C0040190000201A0000206A00002031
:10361000980B00205C00002098040020600000202F
:10362000005000406C000020980D00200038014040
:1036300000440040704700000FB41CB5074B06AAB9
:103640007B4469460090059800F065FB00206946C0
:1036500000F074FB1CBC5DF814FB0000F9060000D0
:1036600070B5044685690068C10601D5302600E0C2
:103670002026C00707D070BDD4E90121304690470D
:10368000206A401C20626D1EF6D570BD70B50446E0
:1036900085690078C00707D170BDD4E901212020D9
:1036A0009047206A401C20626D1EF6D570BD000058
:1036B0002DE9F0410646002410687529314616A50B
:1036C00010D0AFF30080002802DA404213A507E0D3
:1036D00031688A0701D512A502E0490704D511A572
:1036E000012401E0AFF3008000210A2206F1240743
:1036F00009E0B0FBF2FCB0FBF2F302FB1C0030303F
:1037000078541846491C0028F3D123462A463046EF
:10371000BDE8F04100F093B8000000002D0000006B
:103720002B000000200000002DE9F0474FF0000AB8
:1037300089460446C0F820A02046E1688847002852
:1037400076D0252806D0D4E901219047206A401C74
:103750002062F1E7E168204600258847C4F81CA0F4
:1037600006460027C4F818A02A2E09D0304601F0DA
:1037700022F838B304EB8708303EC8F8186019E027
:1037800059F8041B204604EB87029161E1688847E1
:10379000012F064618D1E069002820DA25F020051F
:1037A0001DE0D8F8180000EB800006EB4000303830
:1037B000C8F818002046E1688847064600F0FBFF7D
:1037C0000028EED1012F0AD02E2E08D12046E16824
:1037D00088477F1C0646022F45F02005C4DBA06900
:1037E000002803DA404245F00105A061E80701D056
:1037F00025F01005B6B1A6F14100192802D82036EF
:1038000045F400654A463146204625604D46FCF7A2
:10381000A7FC58B1012806D0ED1D25F0070000F1E6
:10382000080989E704E005F1040985E730468AE7DD
:10383000206ABDE8F08770477047704770472DE9F0
:10384000F0470D4699469246044600F12408016867
:10385000880604D5E06921F01001216000E0012014
:10386000A84201DD471B00E00027A1697A1902EB9D
:103870000900081AA0612078C00602D42046FFF78C
:10388000EFFE002608E0D4E901211AF8060090476F
:10389000206A401C761C20624E45F4DB2078C0066E
:1038A0000AD52046FFF7DCFE06E0D4E901213020EE
:1038B0009047206A401C2062381EA7F10107F4DC03
:1038C00007E0D4E9012118F805009047206A401C60
:1038D0002062281EA5F10105F3DC2046FFF7D6FE85
:1038E0002078000602D50220BDE8F0870120FBE722
:1038F00070472DE9FF4F0C461E464FF0FF378BB047
:10390000D2E90001DDF860800A908A46C1F30A55C9
:1039100005B93D46002108464FF00000BAF1000FFE
:1039200000F4400005DA00EB80004FF4400101EAAA
:1039300050004FEA9059B9F1010F00DDB9460A98DD
:1039400050EA4A000ED044F61050A5F2FF35454328
:103950002F14B8F1000F1ED07542291E1EDDC9F1CB
:1039600000021CE0B8F1010F4FF0000001D030213F
:1039700003E0F24305E02154401CB042FBDB30463B
:103980000022002121540B99C1F80880C1E90020D0
:103990000FB0BDE8F08FBD1B6D1CDEE74A4600DAB4
:1039A000694206A800F05AFA06AB93E8070003AB99
:1039B00083E8070050460A9900F02EFB8DE80700C7
:1039C000A0F500501F3800900398002D09DD42F249
:1039D0001F014A46084403A90390684600F08DFD84
:1039E00008E0A0F500504A461F3803A90390684636
:1039F00000F097FD8DE807000004000C03D04FF0A5
:103A0000FF30410800E01046B8F1000F03D000225B
:103A1000009215461EE0751E05D400F099F930326B
:103A200062556D1EF9D5B3460122084302D000222B
:103A30007F1C04E02078302801D100227F1E002A5C
:103A4000099786D01DE0112D07DA00F081F9303298
:103A500062556D1C50EA0102F5D1084302D000986E
:103A6000C8B10EE00021681E05E0235C625C63546F
:103A70002254401E491C8142F7DBAB46A81B401E66
:103A80000990002004F80B000B98099AC0F80880F0
:103A9000C0E9002B7CE711264FF0000859E72DE91B
:103AA000F04F88460446D21D22F0070191B0D1E9BB
:103AB0000001CDE90A0100F06AFE02460B98C00F32
:103AC00001D02D2007E02068810701D52B2002E0DE
:103AD000202101EAC000032A099001D0072A05DB52
:103AE00003464146204600F079F90BE12078800634
:103AF00001D5E06900E00620B8F1650F814606D0E7
:103B0000B8F1660F18D0B8F1670F70D131E000201E
:103B1000B9F1110F009001DB112301E009F101035C
:103B20000AAA01A90CA8FFF7E4FEDDE90C70002643
:103B300009F10105834647E001204B4600904FF014
:103B400000470AAA01A90CA8FFF7D3FEDDE90DB0D2
:103B50000C995D46002610B909F101000D18B9EB6A
:103B6000050003D4C0F1FF3609F10105A5EB0900FA
:103B70002BE0B9F1010F01DA4FF001090020B9F192
:103B8000110F0090484601DD112300E003460AAA08
:103B900001A90CA8FFF7ADFEDDE90C704D4600262B
:103BA0008346207800070AD4AB4500DA5D4601A8B9
:103BB000012D04DD411911F8011C302907D04F45B2
:103BC00002DA17F1040F04DA012082460FE06D1EBD
:103BD000EEE7002F02DCED1B3E4403E0781CA84218
:103BE00000DD7D1CB81B00F1010A4FF00047207872
:103BF000000703D4AA4501DB4FF0FF3A0021B7F1DB
:103C0000004F0DF143088DF8431024D002202B23E0
:103C1000002F01DA7F422D230A21021EA0F10100AC
:103C200000DC5FB197FBF1FC97FBF1F201FB1C7C20
:103C300017460CF1300C08F801CDEEE7A8F10100B1
:103C400003702188090501D5452100E06521A0F117
:103C5000010800F8011C09980FA9A1EB0807FF1D36
:103C600000B10120411901EBEA70A1693844081A3A
:103C7000401EA0612078C00602D42046FFF7F0FC69
:103C8000099828B1D4E901219047206A401C20629C
:103C90002078C00622D52046FFF7E2FC1EE0002E69
:103CA00004DBB34502DD01A8805D00E03020D4E9EB
:103CB00001219047206A401C2062761CAAF1010075
:103CC0005FEA000A0AD100F03FF8C0680168405C72
:103CD000D4E901219047206A401C2062281EA5F1EA
:103CE0000105DCDC07E0D4E9012118F8010B90475D
:103CF000206A401C2062381EA7F10107F3DC204631
:103D0000FFF7C4FC032011B043E6000001694A1C20
:103D100002610878704700B58FB0CDE9013100210C
:103D2000059105497944CDE9031011466846FFF72E
:103D3000FBFC0FB000BD0000E5FFFFFF0A6802F8C2
:103D4000010B0A607047000000487047B81100205E
:103D500030B5B0F10A024FEA900E71F100034EEA5D
:103D6000817EB0EB0E0061EB91014FEA101E4EEA2E
:103D7000017E10EB0E0041EB11114FEA102E4EEABE
:103D8000016E10EB0E0041EB11214FEA104E4EEA8E
:103D9000014E10EB0E0041EB1141401841F10001C2
:103DA0004FEAD00040EA41704FEAD10110EB8005A4
:103DB0004FEA810444EA907444EB01046D1944EB2A
:103DC0000404521BA3414FF0000348BF0A3200D540
:103DD00030BD401C41F1000130BD00002DE9F04133
:103DE0001F46044603260168072A01F4006004DB2D
:103DF00008B116A505E016A503E008B115A500E079
:103E000015A521F010002060A069C01EA0610FB1AF
:103E1000401EA0612046FFF723FC4FB1D4E90121E9
:103E200038469047206A401C2062C01C206206E091
:103E3000206AFAE7D4E9012115F8010B9047761EB4
:103E4000F8D22046FFF722FCBDE8F0814E414E003B
:103E50006E616E00494E4600696E66002DE9F047BE
:103E6000814616468AB0334878440DC88DE80D0067
:103E700030487844801C03AC0DC884E80D0041F63E
:103E80009B300844372190FBF1F290FBF1F5A5F14E
:103E9000800501FB12041B3C02D56442012000E0B6
:103EA0000020DFF890A080460027FA44AAF1BE0A5D
:103EB0000DE0E00709D03246684607EB47010AEB00
:103EC000810100F02EFB8DE8070064107F1C002CA0
:103ED000EFD1184F7F44AC3F18E0E80714D007EB50
:103EE00004100DF1180A90E80E008AE80E00C06870
:103EF000F04201D198190890324606A903A800F0B3
:103F000010FB03AB83E807006D10641C002DE4D1A7
:103F100032466946B8F1000F03A802D000F0EDFA6E
:103F200001E000F0FEFAC9E90001C9F808200AB072
:103F3000BDE8F087681C0000004870479811002019
:103F40007546FFF7F9FFAE4605006946534620F077
:103F50000700854618B020B5FCF70CFBBDE82040F3
:103F60004FF000064FF000074FF000084FF0000B35
:103F700021F00701AC46ACE8C009ACE8C009ACE8E8
:103F8000C009ACE8C0098D4670470446AFF3008015
:103F90002046FCF702F900004FF0013C50F8042BDA
:103FA00051F8043B9A4221D1A2EB0C03934313EA4C
:103FB000CC1317D150F8042B51F8043B9A4215D179
:103FC000A2EB0C03934313EACC130BD150F8042B50
:103FD00051F8043B9A4209D1A2EB0C03934313EA34
:103FE000CC13DBD04FF00000704700BFD01A01BAED
:103FF000B1FA81F101F0180122FA01F0CB40C1F1D0
:104000002001DBB2C0B2C01A2CFA01F3D11A9143DD
:1040100011EAC311E6D170475FEA400C08BF91F086
:10402000000F4FEA8C234FEAC12243EA51514FEA75
:104030001C5018BF00F5F0404FEA300018BF41F0A7
:1040400000415FEA6C5C00F02980BCF1FF3F08BFD3
:1040500040F080407047130C06BF12044FF0100C64
:104060004FF0000C130E04BF12020CF1080C130FDA
:1040700004BF12010CF1040C930F04BF92000CF169
:10408000020CD30F04BF52000CF1010C11464FF08B
:104090000002A0F11F00A0EB0C00704711F0004FD0
:1040A00008BF704731F000413FF4D5AF0B0C06BF9D
:1040B00009044FF0100C4FF0000C0B0E04BF090266
:1040C0000CF1080C0B0F04BF09010CF1040C8B0F51
:1040D00004BF89000CF1020CCB0F04BF49000CF1A6
:1040E000010CCCF12003A0EB0C0022FA03F302FA3E
:1040F0000CF241EA030100F10100704720F07F4C0F
:1041000080EA030023F07F47ACEB070303F57C5301
:1041100000F0004003F1FF032DE980494FEA154B01
:1041200009B44FEA144325EA0B4E24EA03480FF280
:10413000042606EB132749083E785FEA320203FBA8
:104140000667C7F5000707FB06F64FEA54374FEA44
:10415000D64606F1020607FB066CCCF1005C4FEA7E
:104160001C472CEA074C07FB06F40CFB06F504EB96
:1041700015464FEA961634BF00204FF000404FEA34
:10418000D13706FB07FC4FEA1C4C0CFB0BF7D21B8C
:1041900003FB0CF761EB07010CFB0EF7B0EB0740DC
:1041A00072EB17420CFB08F734BFA2EB0742B2EBED
:1041B000074261EB17414FEA0C444FEA910706FBB7
:1041C00007FC4FEA1C4C0CFB0BF7B0EBC74072EB43
:1041D000573203FB0CF734BFA2EBC742B2EBC74226
:1041E00061EB57310CFB0EF7B0EBC70072EB577267
:1041F0000CFB08F734BFA2EBC702B2EBC70261EBBE
:104200005771039F4FEA816141EA921104EBCC049C
:104210004FEAD1374FEA826206FB07FC42EA90126E
:104220004FEA80604FEA1C4C0CFB0BF7D21B03FBE0
:104230000CF761EB07010CFB0EF7B0EB074072EBDC
:1042400017420CFB08F734BFA2EB0742B2EB074260
:1042500061EB17414FEA8C554FEA910704EB9C2420
:1042600006FB07FC4FEA1C4C0CFB0BF7B0EBC740FE
:1042700072EB573203FB0CF734BFA2EBC742B2EB31
:10428000C74261EB57310CFB0EF7B0EBC70072EB86
:1042900057720CFB08F734BFA2EBC702B2EBC702A0
:1042A00061EB577115EB4C254FEA816141EA9211A0
:1042B0004FEA82624FEAD13742EA901206FB07FCCE
:1042C00044F100044FEA80604FEA1C4C0CFB0BF7F2
:1042D000D21B03FB0CF761EB07010CFB0EF7B0EBF5
:1042E000074072EB17420CFB08F734BFA2EB074202
:1042F000B2EB074261EB174115EB1C154FEA813118
:1043000041EA92414FEA823242EA90424FEA8030DB
:104310004FEA0C7644F1000448EA03434EEA0B48A6
:104320004FF0000EB2EB080C71EB030724BF62469E
:1043300039464EEB0E0E4FF0000B0018524149412A
:104340004BEB0B0BB2EB080C71EB03077BF1000B93
:1043500024BF624639464EEB0E0E4FF0000B00189C
:10436000524149414BEB0B0BB2EB080C71EB0307CD
:104370007BF1000B24BF624639464EEB0E0E51EA2C
:10438000020718BF46F0010616EB0E7655F1000243
:1043900054F1000103D5BDE88901BDE80088BDE8FE
:1043A0008901BDE80048B619524141EB0101A3F172
:1043B0000103704780807F7E7D7C7B7A7978777679
:1043C00076757473727171706F6E6E6D6C6C6B6AF2
:1043D0006A69686867666665646463636261616090
:1043E000605F5F5E5E5D5D5C5C5B5B5A5A5959580D
:1043F0005857575656555555545453535252525177
:10440000515050504F4F4F4E4E4D4D4D4C4C4C4BCC
:104410004B4B4A4A4A494949484848474747474613
:10442000464645454544444444434343434242424F
:1044300042414141002B26D4770021D01CB54FEAE0
:10444000370703B44FF010004FF010014FF0000099
:104450000FBCBDE810400BF1010BBBF1010F08BF11
:104460005FEA170722BF12F1010211F101014FF0BB
:10447000004143F1000300F0004043EA00007047B0
:10448000F9D35708DAE746EA064613F1400F4FEA38
:1044900016461FDD13F1200FDFBF16430A46002129
:1044A00020335B42C8D0C3F1200746EA064602FA31
:1044B00007F74FEA164646EA0706C3F1200722FA35
:1044C00003F201FA07F721FA03F14FF0000342EA81
:1044D0000702B1E746EA020646EA06464FEA1646F2
:1044E00046EA0106BCBF46EA0646360C4FF000031A
:1044F0004FF000024FF000019EE72DE9C0489346BF
:1045000030B491E8380007C831EA400C48BF34EABB
:10451000430C03D5FFF7F2FDFFF78CFFF0BCBDE8BD
:1045200000882DE9C048934630B491E8380007C8A8
:1045300010F0804F08BF13F0804F03D100F005F852
:10454000FFF778FFF0BCBDE8008820F07F4780EAE5
:10455000030023F07F4C07EB0C03A3F57C5300F022
:104560000040A3F1FE0392F0000F00F0B38095F03D
:10457000000F00F077802DE901494FEA11404FEA22
:10458000144621EA004800FB06FC24EA064708FB23
:1045900006F607FB08F800FB07F718EB06484CEB9C
:1045A000164C4FEA124B18EB07484FEA15464CEBF6
:1045B000174022EA0B4E0BFB06FC25EA06470EFBD2
:1045C00006F607FB0EFE0BFB07F71EEB064E4CEB49
:1045D000164C4FF000061EEB074E4CEB174B18EB3A
:1045E0000B0840F1000018EB0E0B58EB000840F1EF
:1045F00000008F1A4FF000013CBFC943661B14BF77
:10460000B5EB040C00213CBFC943F61B4FEA17442D
:104610004EEA8E0E27EA04454FEA1C4704FB076268
:104620002CEA074C05FB07F70CFB05F604FB0CFC1A
:1046300016EB074642EB174216EB0C4642EB1C42C8
:104640001BEB060658EB0202414146EA9E0601D5E5
:10465000BDE80189B619524141EB0101A3F1010303
:10466000BDE801894FEA14454FEA114724EA05469F
:1046700021EA074C05FB07F406FB07F70CFB06F1E4
:1046800005FB0CFC11EB074144EB17444FEA1247C2
:1046900011EB0C4144EB1C4422EA074C05FB07F2EA
:1046A00006FB07F70CFB06F605FB0CFC16EB0746B2
:1046B00042EB174216EB0C4642EB1C456A1854F1CC
:1046C000000148BF7047B619524141EB0101A3F107
:1046D0000103704795F0000F37D04FEA11424FEABF
:1046E000144721EA024624EA074C02FB07F106FBC5
:1046F00007F70CFB06F402FB0CFC14EB074441EB40
:1047000017414FEA154714EB0C4441EB1C4125EAD5
:10471000074C02FB07F506FB07F70CFB06F602FB4E
:104720000CFC16EB074645EB174516EB0C4645EB24
:104730001C42121951F1000148BF7047B61952418D
:1047400041EB0101A3F1010370474FEA14454FEA21
:10475000114724EA054621EA074C05FB07F106FB51
:1047600007F70CFB06F24FF0000605FB0CFC12EB02
:10477000074241EB174112EB0C4251EB1C4148BF81
:104780007047921841EB0101A3F101037047490002
:1047900050EAC12018BF04204A0D18BF40F00100A4
:1047A00040F2FF72B2EB515F08BF40F002000128F7
:1047B00008BF0520704730380A2801D20120704711
:1047C0000020704710B500290AD00878002807D0CB
:1047D00005487844FFF7E0FB002801D0002010BD19
:1047E0000248784410BD00003A1300003213000064
:1047F00021F00042A2F16052B2F5801F01F00043A7
:1048000028BFD2F17F6C0BD95FEA001C43EAC202D9
:1048100042EB507018BF704728BF20F0010070476E
:10482000B2F5801FBCBF184670474FEA410C1CF51B
:10483000001F02D2084600F056BB70B500F0B4F875
:1048400000000089FFF7F6BF4FF00040A0F58000A0
:1048500070470000DFF848C170B51CEA111E1EBF8A
:104860001CEA13159EEA0C0F95EA0C0F00F06F80FE
:1048700081EA030423EA4C134EEAD47E21EA4C1168
:1048800041F4801143F48013AE44A1FB024CA0FB21
:104890000365AEF17F7E361955EB0C05A1FB034C89
:1048A0004CF10003A0FB021C16EB0C06654153F112
:1048B0000003094218BF46F0010613F4007F0BD134
:1048C0004FEA03314FEA0530340341EA155140EA1B
:1048D00016506FF003020AE04FEAC3214FEAC520E9
:1048E000F40241EA555140EA56506FF0020202EBE1
:1048F0002E4201EB025585EACE710AD05FEA440CE4
:1049000018BF24F0004450F1000041F1000120EAFA
:10491000D47040F2FE7C624500D270BDA84214BF44
:104920004FF080444FF04044002E08BF0024BEF1F9
:10493000806FA8BFA1F1C041BDE8704080F28280C5
:104940004FF0000001F1C04101F0004170479EEAC4
:104950000C0F0CEA131518BF95EA0C0F06D04FF098
:10496000000081EA030E0EF0004170BD00F01CF85B
:104970008900013E00F007B800F009B84FEA430C87
:104980005FEA5C5C08D081EA030100F05BB84FEAA3
:10499000410C5FEA5C5CF6D14FF0000001497047C2
:1049A0000000FF070000F87F0EF1020E2EF0030E4C
:1049B0005EF8046B364205D4012A43EB030515F576
:1049C000001F12D8012841EB010C1CF5001F0CD868
:1049D0000ED14FEAD17C15F5001F0CEB4C0C0CF1FD
:1049E000020C08BF4CEBD37C04E04FF0080C01E054
:1049F0004FEAD37C0CEB4C0526FA05F606F00706C9
:104A0000B6F1040C06D20EEB860CBDE870404CF0FB
:104A1000010C6047DFE80CF0090B02024FF0004187
:104A20004FF00000A1F5002170BD19461046012885
:104A300051EB010418BFD4F5001484BF002001F02D
:104A4000004170BD0808A0F500114FEA3101704720
:104A500043004FEAD30C4FEA3C0C43401FBF4007D2
:104A60000CF1605113F0FE4F70471CF0006F03D142
:104A700000200CF0004170470CF0004343EA5070F6
:104A800010B540EACC0000F0E8F900BF0000009249
:104A90004FEA0001FFF7D6BF4FF000414FF0000092
:104AA000A1F500217047000090EA010F48BF81F096
:104AB000004100F12E82421A3CBF801A89184FEA49
:104AC000D0524FF07F4C1CEA410FA2EBD15318BFDC
:104AD0009CEA026F00F03B804FF0004C4CEA002053
:104AE0004CEA012121FA03FC10EB0C0C1ED202F15E
:104AF000FF325FEA1C2040EBC25038BF70471CF009
:104B00007F0F4FEA400C18BFBCF17F4F38BF704792
:104B1000C3F12003994008BF20F00100BCF17F4F92
:104B200038BF7047A0F1C04000F0DDB94FEA3C004B
:104B3000000A40EBC25028BF1CF0FF0F4FEA400CA8
:104B4000E6D018BFBCF17F4F38BF7047EAE79CEA58
:104B5000026F05D010EA5C0F08BF00F000407047FC
:104B600010B500F07AF900BF64FBBE3E4FF47F0C35
:104B70001CEAD0121EBF1CEAD11392EA0C0F93EA72
:104B80000C0F00F0858090EA010F48BF42F480725C
:104B900040F4000C41F400002CF07F4120F07F40F5
:104BA00000B58142A2EB03020FF2081CACEB504EA1
:104BB000C0F100009EF800E04FEA4E0E00FB0EFC34
:104BC00038BF49004FEA2C1C02F5FA020CFB0EF329
:104BD0004FEACE1E4FEA112C4FEAC1210EEB635E65
:104BE00042EB22420EFB0CFC4FEA1C5300FB03116C
:104BF0004FEA112C4FEA01310EFB0CFC4FEADC4C62
:104C000000FB0C11C14228BF09184CEB03335DF8BF
:104C100004EB10EB410143EBC250B2F57C0F38BFFF
:104C2000704729D512F0F00F1CBF00F1C04000F012
:104C300000407047008182838485868788898B8CB9
:104C40008D8E8F919293959697999A9C9D9FA0A2F5
:104C5000A3A5A7A8AAACAEB0B2B3B5B7B9BCBEC045
:104C6000C2C5C7C9CCCED1D4D7D9DCDFE2E6E9ECE6
:104C7000F0F3F7FAFE0000004FEA400C0CF1807CE4
:104C8000BCF17E4F28BF7047B0F1C04000F02BB997
:104C900090EA010F0CEAD11348BF42F480726245DA
:104CA00038BF634507D213F47F0F16D080EA0100A6
:104CB00000F00040704710B500F0CFF8097EFC3ED0
:104CC00000F005B880EA010000F00040704780EA7B
:104CD000010000F0004000F006B912F47F0F04BF9D
:104CE0000248704780EA010000F0FDB80000C07F74
:104CF000C10DD1F19E0206DB4FEA002343F00043D1
:104D000023FA02F07047004207D54FEA4001B1F1A3
:104D1000FE4F02D24FF00000704710B500F09DF832
:104D200049922480002070476FEA200070470000FD
:104D3000B0FA80F310FA03F2C3F19D030AD0D9054B
:104D400001EB1220530638BF704700F1010008BF85
:104D500020F00100704700004FF47F0C1CEAD012D5
:104D60001EBF1CEAD11392EA0C0F93EA0C0F00F05D
:104D7000478090EA010F48BF42F480724FF0004C28
:104D80004CEA00204CEA012102EB0302A0FB0113D4
:104D9000A2F50002002918BF43F001035B0028BF01
:104DA0004FEA330342EB22425FEA132C4CEBC25032
:104DB0002EBFBCEB436FB2F57C0F70474FEA036C1C
:104DC000BCF1004F08BF20F00100B2F57C0F38BFE6
:104DD00070470BD582F0FF0212F5803FC8BF7047C5
:104DE00000F1C040D8BF00F00040704700F5000C53
:104DF0005FEA4C0C48BF7047B0F1C04000F073B898
:104E000090EA010F0CEAD11348BF42F48072624568
:104E100038BF634504D280EA010000F000407047CB
:104E200010B500F01AF800BF8900013E00F007B885
:104E300000F009B85FEA410C5FEA1C6C08D080EA18
:104E4000010000F050B85FEA400C5FEA1C6CF6D13C
:104E50004FF00040A0F5800070470EF1020E2EF0DA
:104E6000030E5EF8044B244204D44FEA4102B2F12F
:104E70007F4F11D84FEA4003B3F17F4F0CD80ED1CA
:104E80004FEAD07CB2F17F4F0CEB4C0C0CF1020CD2
:104E900008BF4CEBD17C04E04FF0080C01E04FEA76
:104EA000D17C0CEB4C0324FA03F404F00704B4F1B6
:104EB000040C06D20EEB840CBDE810404CF0010C43
:104EC0006047DFE80CF0070802024FF00040A0F551
:104ED000800010BD0846420018BFD2F1807288BF22
:104EE00000F0004010BDFF2141EAD050C0057047DE
:104EF00080F0004090EA010F7FF5DDAD81F00041C8
:104F000000F007B890EA010F48BF81F000413FF57B
:104F1000D2AD421A04D882F00042A0EB0200114444
:104F20004FEAD0524FF07F4C1CEA410FA2EBD15315
:104F300018BF9CEA026F4AD04FF0004C4CEA0020A8
:104F40004CEA012121FA03FCB0EB0C0C0FD412F057
:104F5000FE0F36D05FEA4C001DD5001240EBC25068
:104F600038BF70471CF03F0F18BF70470BE0A2F12D
:104F700001025FEA1C2040EBC25038BF70471CF0B2
:104F80007F0F18BF7047C3F12003994014BF401E24
:104F900020F00100704780084FEA122308BF7047D5
:104FA000B0FA80FCA2EB0C02CCF1280C60FA0CF0F9
:104FB00093EA122F04BF00EBC25070474FEAC37050
:104FC0007047130A5FEADC1008BF7047F6E79CEAF7
:104FD000026F04D010EA5C0F08BF0020704710B5C4
:104FE000FFF73BFF40DFF63E81F000407047FEF7E1
:104FF00056BD00000000000000000000000000009E
:1050000000003F40000000000000000030004000B1
:1050100030004000000009000BC03D000BC03D0007
:10502000090018C024407FE02240318000001800B1
:1050300024C01B000D803240018003801C402740AB
:105040001C800740004010006000000000000000CD
:1050500000000000000000001F80204040200000F1
:10506000402020401F8000000000090006001F8033
:10507000060009000000040004003F800400040052
:1050800000000010006000000000000000000400AC
:1050900004000400040004000000000000400000C0
:1050A000000000000000002001C0060038004000A1
:1050B00000001F802040204020401F800000000092
:1050C00010403FC000400000000018C021402240B6
:1050D00024401840000010802040244024401B80C1
:1050E000000002000D0011003FC0014000003C80A4
:1050F000244024402440238000001F80244024407A
:105100003440038000003000200027C03800200019
:1051100000001B802440244024401B8000001C0011
:1051200022C0224022401F800000000000000840F2
:10513000000000000000000000000460000000000B
:105140000000000004000A00110020804040090017
:10515000090009000900090000000000404020800B
:1051600011000A0004001800200023402400180049
:1051700000001F802040274029401F4000000040C1
:1051800007C039000F0001C0004020403FC024404C
:1051900024401B8000001F802040204020403080A1
:1051A000000020403FC0204020401F8000002040E1
:1051B0003FC024402E4030C0000020403FC024406B
:1051C0002E00300000000F0010802040224033806D
:1051D000020020403FC0040004003FC020402040A7
:1051E00020403FC0204020400000006020202020C0
:1051F0003FC02000200020403FC024400B0030C0B2
:10520000204020403FC020400040004000C03FC040
:105210003C0003C03C003FC0000020403FC00C40A9
:1052200023003FC020001F802040204020401F80DE
:10523000000020403FC024402400180000001F80D0
:105240002140214020E01FA0000020403FC024401A
:10525000260019C0004018C024402440224031805C
:105260000000300020403FC02040300000002000FF
:105270003F80004000403F80200020003E0001C0F1
:10528000070038002000380007C03C0007C0380085
:105290000000204039C0060039C020400000200036
:1052A000384007C0384020000000304021C0264070
:1052B000384020C00000000000007FE04020402077
:1052C0000000000070000C0003800040000000009F
:1052D000402040207FE0000000000000200040004F
:1052E000200000000000001000100010001000104E
:1052F000001000000000400000000000000000005E
:1053000002800540054003C0004020003FC004402B
:105310000440038000000000038004400440064075
:10532000000000000380044024403FC00040000013
:1053300003800540054003400000000004401FC0FA
:10534000244024402000000002E005500550065093
:10535000042020403FC00440040003C0004000007F
:10536000044027C00040000000000010001004109E
:1053700027E00000000020403FC00140070004C0BB
:105380000440204020403FC000400040000007C0D3
:10539000040007C0040003C00000044007C004402C
:1053A000040003C000400000038004400440038068
:1053B0000000041007F004500440038000000000C7
:1053C00003800440045007F00010044007C002406E
:1053D000040004000000000006400540054004C031
:1053E0000000000004001F80044000400000040092
:1053F00007800040044007C000400400070004C0CC
:10540000018006000400060001C0070001C006007C
:105410000000044006C0010006C004400000041063
:10542000071004E00180060004000000044005C0ED
:105430000640044000000000000004007BE0402023
:105440000000000000000000FFF00000000000006D
:1054500040207BE00400000000004000800040008D
:1054600020002000400000000000000000000000BC
:105470000000000000000000000000001FCC000C35
:10548000000000000000000008003000600008007C
:10549000300060000000022003FC1E20022003FCFC
:1054A0001E200220000000000E1811043FFF10848F
:1054B0000C78000000000F0010840F3800C007783F
:1054C00018840078000000780F8410C411240E980E
:1054D00000E400840008080068007000000000007C
:1054E00000000000000000000000000007E01818A5
:1054F000200440020000000040022004181807E0C9
:105500000000000000000240024001800FF0018016
:105510000240024000000080008000800FF8008000
:105520000080008000000001000D000E000000005F
:10553000000000000000000000800080008000806B
:105540000080008000800000000C000C00000000C3
:10555000000000000000000000060018006001804C
:10556000060018002000000007F0080810041004CE
:10557000080807F000000000080408041FFC0004ED
:1055800000040000000000000E0C10141024104451
:1055900011840E0C000000000C18100411041104FA
:1055A00012880C700000000000E00320042408248E
:1055B0001FFC0024000000001F9810841104110437
:1055C000108810700000000007F008881104110412
:1055D00018880070000000001C00100010FC130070
:1055E0001C001000000000000E38114410841084CC
:1055F00011440E38000000000700088C10441044CD
:10560000088807F00000000000000000030C030CF5
:105610000000000000000000000000010106000082
:105620000000000000000000008001400220041083
:10563000080810040000022002200220022002209C
:1056400002200220000000001004080804100220BC
:1056500001400080000000000E001200100C106CD1
:1056600010800F00000003E00C1813E4142417C48A
:10567000082807D000000004003C03C41C40074079
:1056800000E4001C000410041FFC110411041104A8
:105690000E880070000003E00C18100410041004C1
:1056A00010081C10000010041FFC1004100410044B
:1056B000080807F0000010041FFC1104110417C4AF
:1056C00010040818000010041FFC1104110017C07A
:1056D00010000800000003E00C181004100410442F
:1056E0001C780040000010041FFC10840080008023
:1056F00010841FFC10040000100410041FFC100490
:1057000010040000000000030001100110011FFE42
:1057100010001000000010041FFC1104038014642A
:10572000181C1004000010041FFC100400040004E6
:105730000004000C000010041FFC1F0000FC1F00F0
:105740001FFC1004000010041FFC0C04030000E008
:1057500010181FFC100007F00808100410041004B3
:10576000080807F0000010041FFC1084108010804F
:1057700010800F00000007F0081810241024101CDF
:10578000080A07F2000010041FFC1104110011C0E8
:1057900011300E0C000400000E1C11041084108443
:1057A00010441C3800001800100010041FFC1004E6
:1057B00010001800000010001FF81004000400047E
:1057C00010041FF8100010001E0011E0001C0070F3
:1057D00013801C0010001FC0103C00E01F0000E000
:1057E000103C1FC000001004180C163401C001C08A
:1057F0001634180C100410001C00130400FC1304D1
:105800001C00100000000804101C10641084130415
:105810001C04101800000000000000007FFE400281
:10582000400240020000000030000C0003800060D5
:10583000001C0003000000004002400240027FFE06
:1058400000000000000000000000200040004000B8
:1058500040002000000000010001000100010001E3
:105860000001000100010000400040002000000095
:1058700000000000000000000098012401440144E1
:10588000014400FC000410001FFC00880104010416
:10589000008800700000000000700088010401040E
:1058A0000104008800000000007000880104010469
:1058B00011081FFC0004000000F8014401440144E9
:1058C000014400C800000000010401040FFC1104A1
:1058D000110411001800000000D601290129012936
:1058E00001C90106000010041FFC00840100010032
:1058F000010400FC000400000104190419FC000468
:105900000004000000000000000300010101190173
:1059100019FE0000000010041FFC0024004001B428
:10592000010C010400000000100410041FFC00041E
:10593000000400000000010401FC0104010001FC5E
:105940000104010000FC010401FC008401000100CD
:10595000010400FC0004000000F80104010401043B
:10596000010400F80000010101FF008501040104A9
:10597000008800700000000000700088010401042D
:10598000010501FF00010104010401FC0084010480
:10599000010001800000000000CC0124012401244A
:1059A00001240198000000000100010007F8010433
:1059B000010400000000010001F8000400040004DC
:1059C000010801FC0004010001800170000C0010BE
:1059D00001600180010001F0010C003001C00030C5
:1059E000010C01F0010000000104018C0074017041
:1059F000018C01040000010101810171000E0018F9
:105A000001600180010000000184010C01340144A7
:105A10000184010C000000000000000000000100F3
:105A20003EFC400240020000000000000000FFFFBA
:105A30000000000000000000400240023EFC0100A7
:105A400000000000000000006000800080004000B6
:105A5000400020002000000002400000000000A0E4
:105A60000000000005400000000000C80000000029
:105A70000C4000000000409C0000000019400000A5
:105A80000020BCBE0000000034400000BFC91B8ED7
:105A900000000004B5400000504BCFD06607E2CFB5
:105AA000010000006C4100003E8251AADFEEA734E5
:105AB00001000000D9420000DCB5A0E23A301F9797
:105AC000FFFFFFFFB4450000FD25A0C8E9A3C14FBB
:105AD000FFFFFFFFFF3F000000000080000000000C
